{
  "_format": "hh-sol-artifact-1",
  "contractName": "Crowdfund",
  "sourceName": "contracts/Crowdfund.sol",
  "abi": [
    {
      "inputs": [
        {
          "internalType": "uint256",
          "name": "fechaIncio",
          "type": "uint256"
        },
        {
          "internalType": "uint256",
          "name": "fechaFin",
          "type": "uint256"
        },
        {
          "internalType": "string",
          "name": "nombre",
          "type": "string"
        },
        {
          "internalType": "address",
          "name": "beneficiario",
          "type": "address"
        }
      ],
      "stateMutability": "nonpayable",
      "type": "constructor"
    },
    {
      "anonymous": false,
      "inputs": [
        {
          "indexed": true,
          "internalType": "address",
          "name": "previousOwner",
          "type": "address"
        },
        {
          "indexed": true,
          "internalType": "address",
          "name": "newOwner",
          "type": "address"
        }
      ],
      "name": "OwnershipTransferred",
      "type": "event"
    },
    {
      "inputs": [],
      "name": "contribuir",
      "outputs": [],
      "stateMutability": "nonpayable",
      "type": "function"
    },
    {
      "inputs": [],
      "name": "owner",
      "outputs": [
        {
          "internalType": "address",
          "name": "",
          "type": "address"
        }
      ],
      "stateMutability": "view",
      "type": "function"
    },
    {
      "inputs": [],
      "name": "renounceOwnership",
      "outputs": [],
      "stateMutability": "nonpayable",
      "type": "function"
    },
    {
      "inputs": [],
      "name": "retirar",
      "outputs": [],
      "stateMutability": "nonpayable",
      "type": "function"
    },
    {
      "inputs": [
        {
          "internalType": "address",
          "name": "newOwner",
          "type": "address"
        }
      ],
      "name": "transferOwnership",
      "outputs": [],
      "stateMutability": "nonpayable",
      "type": "function"
    }
  ],
  "bytecode": "0x60806040523480156200001157600080fd5b5060405162000a0f38038062000a0f83398181016040528101906200003791906200042a565b620000576200004b6200007160201b60201c565b6200007960201b60201c565b620000676200013d60201b60201c565b505050506200053e565b600033905090565b60008060009054906101000a900473ffffffffffffffffffffffffffffffffffffffff169050816000806101000a81548173ffffffffffffffffffffffffffffffffffffffff021916908373ffffffffffffffffffffffffffffffffffffffff1602179055508173ffffffffffffffffffffffffffffffffffffffff168173ffffffffffffffffffffffffffffffffffffffff167f8be0079c531659141344cd1fd0a4f28419497f9722a3daafe3b4186f6b6457e060405160405180910390a35050565b6200014d6200007160201b60201c565b73ffffffffffffffffffffffffffffffffffffffff1662000173620001ce60201b60201c565b73ffffffffffffffffffffffffffffffffffffffff1614620001cc576040517f08c379a0000000000000000000000000000000000000000000000000000000008152600401620001c3906200051c565b60405180910390fd5b565b60008060009054906101000a900473ffffffffffffffffffffffffffffffffffffffff16905090565b6000604051905090565b600080fd5b600080fd5b6000819050919050565b62000220816200020b565b81146200022c57600080fd5b50565b600081519050620002408162000215565b92915050565b600080fd5b600080fd5b6000601f19601f8301169050919050565b7f4e487b7100000000000000000000000000000000000000000000000000000000600052604160045260246000fd5b6200029b8262000250565b810181811067ffffffffffffffff82111715620002bd57620002bc62000261565b5b80604052505050565b6000620002d2620001f7565b9050620002e0828262000290565b919050565b600067ffffffffffffffff82111562000303576200030262000261565b5b6200030e8262000250565b9050602081019050919050565b60005b838110156200033b5780820151818401526020810190506200031e565b60008484015250505050565b60006200035e6200035884620002e5565b620002c6565b9050828152602081018484840111156200037d576200037c6200024b565b5b6200038a8482856200031b565b509392505050565b600082601f830112620003aa57620003a962000246565b5b8151620003bc84826020860162000347565b91505092915050565b600073ffffffffffffffffffffffffffffffffffffffff82169050919050565b6000620003f282620003c5565b9050919050565b6200040481620003e5565b81146200041057600080fd5b50565b6000815190506200042481620003f9565b92915050565b6000806000806080858703121562000447576200044662000201565b5b600062000457878288016200022f565b94505060206200046a878288016200022f565b935050604085015167ffffffffffffffff8111156200048e576200048d62000206565b5b6200049c8782880162000392565b9250506060620004af8782880162000413565b91505092959194509250565b600082825260208201905092915050565b7f4f776e61626c653a2063616c6c6572206973206e6f7420746865206f776e6572600082015250565b600062000504602083620004bb565b91506200051182620004cc565b602082019050919050565b600060208201905081810360008301526200053781620004f5565b9050919050565b6104c1806200054e6000396000f3fe608060405234801561001057600080fd5b50600436106100575760003560e01c80634735a4421461005c578063715018a614610066578063799000b1146100705780638da5cb5b1461007a578063f2fde38b14610098575b600080fd5b6100646100b4565b005b61006e6100b6565b005b6100786100ca565b005b6100826100cc565b60405161008f9190610303565b60405180910390f35b6100b260048036038101906100ad919061034f565b6100f5565b005b565b6100be610178565b6100c860006101f6565b565b565b60008060009054906101000a900473ffffffffffffffffffffffffffffffffffffffff16905090565b6100fd610178565b600073ffffffffffffffffffffffffffffffffffffffff168173ffffffffffffffffffffffffffffffffffffffff160361016c576040517f08c379a0000000000000000000000000000000000000000000000000000000008152600401610163906103ff565b60405180910390fd5b610175816101f6565b50565b6101806102ba565b73ffffffffffffffffffffffffffffffffffffffff1661019e6100cc565b73ffffffffffffffffffffffffffffffffffffffff16146101f4576040517f08c379a00000000000000000000000000000000000000000000000000000000081526004016101eb9061046b565b60405180910390fd5b565b60008060009054906101000a900473ffffffffffffffffffffffffffffffffffffffff169050816000806101000a81548173ffffffffffffffffffffffffffffffffffffffff021916908373ffffffffffffffffffffffffffffffffffffffff1602179055508173ffffffffffffffffffffffffffffffffffffffff168173ffffffffffffffffffffffffffffffffffffffff167f8be0079c531659141344cd1fd0a4f28419497f9722a3daafe3b4186f6b6457e060405160405180910390a35050565b600033905090565b600073ffffffffffffffffffffffffffffffffffffffff82169050919050565b60006102ed826102c2565b9050919050565b6102fd816102e2565b82525050565b600060208201905061031860008301846102f4565b92915050565b600080fd5b61032c816102e2565b811461033757600080fd5b50565b60008135905061034981610323565b92915050565b6000602082840312156103655761036461031e565b5b60006103738482850161033a565b91505092915050565b600082825260208201905092915050565b7f4f776e61626c653a206e6577206f776e657220697320746865207a65726f206160008201527f6464726573730000000000000000000000000000000000000000000000000000602082015250565b60006103e960268361037c565b91506103f48261038d565b604082019050919050565b60006020820190508181036000830152610418816103dc565b9050919050565b7f4f776e61626c653a2063616c6c6572206973206e6f7420746865206f776e6572600082015250565b600061045560208361037c565b91506104608261041f565b602082019050919050565b6000602082019050818103600083015261048481610448565b905091905056fea264697066735822122036923db84e85af5aa8524dff8f5d37887e3e9e182f1c0b6f6c292631ebe289bf64736f6c63430008130033",
  "linkReferences": {},
  "deployedLinkReferences": {}
}