{
  "_format": "hh-sol-artifact-1",
  "contractName": "Crowdfund",
  "sourceName": "contracts/Crowdfund.sol",
  "abi": [
    {
      "inputs": [
        {
          "components": [
            {
              "internalType": "uint256",
              "name": "fechaIncio",
              "type": "uint256"
            },
            {
              "internalType": "uint256",
              "name": "fechaFin",
              "type": "uint256"
            },
            {
              "internalType": "uint256",
              "name": "nombre",
              "type": "uint256"
            },
            {
              "internalType": "uint256",
              "name": "beneficiario",
              "type": "uint256"
            }
          ],
          "internalType": "struct Crowdfund.Capania",
          "name": "_camapnia",
          "type": "tuple"
        }
      ],
      "stateMutability": "nonpayable",
      "type": "constructor"
    },
    {
      "anonymous": false,
      "inputs": [
        {
          "indexed": true,
          "internalType": "address",
          "name": "previousOwner",
          "type": "address"
        },
        {
          "indexed": true,
          "internalType": "address",
          "name": "newOwner",
          "type": "address"
        }
      ],
      "name": "OwnershipTransferred",
      "type": "event"
    },
    {
      "inputs": [],
      "name": "contribuir",
      "outputs": [],
      "stateMutability": "nonpayable",
      "type": "function"
    },
    {
      "inputs": [],
      "name": "owner",
      "outputs": [
        {
          "internalType": "address",
          "name": "",
          "type": "address"
        }
      ],
      "stateMutability": "view",
      "type": "function"
    },
    {
      "inputs": [],
      "name": "renounceOwnership",
      "outputs": [],
      "stateMutability": "nonpayable",
      "type": "function"
    },
    {
      "inputs": [],
      "name": "retirar",
      "outputs": [],
      "stateMutability": "nonpayable",
      "type": "function"
    },
    {
      "inputs": [
        {
          "internalType": "address",
          "name": "newOwner",
          "type": "address"
        }
      ],
      "name": "transferOwnership",
      "outputs": [],
      "stateMutability": "nonpayable",
      "type": "function"
    }
  ],
  "bytecode": "0x60806040523480156200001157600080fd5b50604051620008e3380380620008e383398181016040528101906200003791906200035d565b620000576200004b6200006e60201b60201c565b6200007660201b60201c565b620000676200013a60201b60201c565b5062000412565b600033905090565b60008060009054906101000a900473ffffffffffffffffffffffffffffffffffffffff169050816000806101000a81548173ffffffffffffffffffffffffffffffffffffffff021916908373ffffffffffffffffffffffffffffffffffffffff1602179055508173ffffffffffffffffffffffffffffffffffffffff168173ffffffffffffffffffffffffffffffffffffffff167f8be0079c531659141344cd1fd0a4f28419497f9722a3daafe3b4186f6b6457e060405160405180910390a35050565b6200014a6200006e60201b60201c565b73ffffffffffffffffffffffffffffffffffffffff1662000170620001cb60201b60201c565b73ffffffffffffffffffffffffffffffffffffffff1614620001c9576040517f08c379a0000000000000000000000000000000000000000000000000000000008152600401620001c090620003f0565b60405180910390fd5b565b60008060009054906101000a900473ffffffffffffffffffffffffffffffffffffffff16905090565b6000604051905090565b600080fd5b600080fd5b6000601f19601f8301169050919050565b7f4e487b7100000000000000000000000000000000000000000000000000000000600052604160045260246000fd5b620002538262000208565b810181811067ffffffffffffffff8211171562000275576200027462000219565b5b80604052505050565b60006200028a620001f4565b905062000298828262000248565b919050565b6000819050919050565b620002b2816200029d565b8114620002be57600080fd5b50565b600081519050620002d281620002a7565b92915050565b600060808284031215620002f157620002f062000203565b5b620002fd60806200027e565b905060006200030f84828501620002c1565b60008301525060206200032584828501620002c1565b60208301525060406200033b84828501620002c1565b60408301525060606200035184828501620002c1565b60608301525092915050565b600060808284031215620003765762000375620001fe565b5b60006200038684828501620002d8565b91505092915050565b600082825260208201905092915050565b7f4f776e61626c653a2063616c6c6572206973206e6f7420746865206f776e6572600082015250565b6000620003d86020836200038f565b9150620003e582620003a0565b602082019050919050565b600060208201905081810360008301526200040b81620003c9565b9050919050565b6104c180620004226000396000f3fe608060405234801561001057600080fd5b50600436106100575760003560e01c80634735a4421461005c578063715018a614610066578063799000b1146100705780638da5cb5b1461007a578063f2fde38b14610098575b600080fd5b6100646100b4565b005b61006e6100b6565b005b6100786100ca565b005b6100826100cc565b60405161008f9190610303565b60405180910390f35b6100b260048036038101906100ad919061034f565b6100f5565b005b565b6100be610178565b6100c860006101f6565b565b565b60008060009054906101000a900473ffffffffffffffffffffffffffffffffffffffff16905090565b6100fd610178565b600073ffffffffffffffffffffffffffffffffffffffff168173ffffffffffffffffffffffffffffffffffffffff160361016c576040517f08c379a0000000000000000000000000000000000000000000000000000000008152600401610163906103ff565b60405180910390fd5b610175816101f6565b50565b6101806102ba565b73ffffffffffffffffffffffffffffffffffffffff1661019e6100cc565b73ffffffffffffffffffffffffffffffffffffffff16146101f4576040517f08c379a00000000000000000000000000000000000000000000000000000000081526004016101eb9061046b565b60405180910390fd5b565b60008060009054906101000a900473ffffffffffffffffffffffffffffffffffffffff169050816000806101000a81548173ffffffffffffffffffffffffffffffffffffffff021916908373ffffffffffffffffffffffffffffffffffffffff1602179055508173ffffffffffffffffffffffffffffffffffffffff168173ffffffffffffffffffffffffffffffffffffffff167f8be0079c531659141344cd1fd0a4f28419497f9722a3daafe3b4186f6b6457e060405160405180910390a35050565b600033905090565b600073ffffffffffffffffffffffffffffffffffffffff82169050919050565b60006102ed826102c2565b9050919050565b6102fd816102e2565b82525050565b600060208201905061031860008301846102f4565b92915050565b600080fd5b61032c816102e2565b811461033757600080fd5b50565b60008135905061034981610323565b92915050565b6000602082840312156103655761036461031e565b5b60006103738482850161033a565b91505092915050565b600082825260208201905092915050565b7f4f776e61626c653a206e6577206f776e657220697320746865207a65726f206160008201527f6464726573730000000000000000000000000000000000000000000000000000602082015250565b60006103e960268361037c565b91506103f48261038d565b604082019050919050565b60006020820190508181036000830152610418816103dc565b9050919050565b7f4f776e61626c653a2063616c6c6572206973206e6f7420746865206f776e6572600082015250565b600061045560208361037c565b91506104608261041f565b602082019050919050565b6000602082019050818103600083015261048481610448565b905091905056fea2646970667358221220ffec3e3e958664133737d4c27a294c73a62651440552341ec8d10374e5b8c07664736f6c63430008130033",
  "linkReferences": {},
  "deployedLinkReferences": {}
}